:100000000C9462040C94A6040C94A6040C94A6040C
:100010000C94A6040C94A6040C94A6040C94A604B8
:100020000C94A6040C94A6040C94D10F0C94A31069
:100030000C94A6040C94A6040C94A6040C94A60498
:100040000C94A6040C947B230C94A6040C94A60494
:100050000C94A6040C946F1E0C94A6040C94A60495
:100060000C94A6040C94A6040C94A6040C94A60468
:100070000C94A6040C94A6040C94A6040C94A60458
:100080000C94A6040C94A6040C94A6040C94A60448
:100090000C94A6040C94A6040C94A6040C94A60438
:1000A0000C94A6040C94A6040C94A60408112A111E
:1000B00015122A1115126C118F111512E411F71176
:1000C000D114D1140015001538155A158216821650
:1000D000651582160C160C167516821682167D167C
:1000E0001916191619161916191619161916191698
:1000F0001916191619161916191619161916191688
:100100002B1639164016471651166572676F646FC5
:10011000785F657A2F6976657320402076342E30BB
:100120002D3234342D673561653533662D6469723F
:100130007479000000F0A3F0A4F0A5F0A629002B2C
:10014000002961E100A60000001E00140004001D4B
:1001500000000FE2001F001A0016001B00E0000361
:10016000512000080007000600E2000008210015E9
:1001700000090019002845A800220017000A000500
:10018000000000AA0035002F02000026020000A98E
:10019000002E003002000026020000AE0023001CEA
:1001A000000B0011000000AB00240018000D00102F
:1001B000004C00350825000C000E00360050002CC5
:1001C00000260012000F00370051000451270013D1
:1001D000003300380052002B082A00310034002878
:1001E000004F00000029002B002961E100A600005B
:1001F000001E00140004001D00000FE2001F001A82
:100200000015001B00E00003512000090016000645
:1002100000E200000821001300170019002845A87B
:100220000022000A00070005000000AA0035002F88
:1002300000000026020000A9002E00300000002669
:10024000020000AE0023000D000B0011000000AB07
:100250000024000F00110010004C00350825001884
:10026000000800360050002C0026001C000C00374F
:100270000051000451270033001200380052002BB7
:10028000082A003100340028004F00000029002B0C
:10029000002961E100A60000001E000400040033F4
:1002A00000000FE2001F00120012001400E0000323
:1002B000512000080008000D00E20000082100188D
:1002C0000018000E002845A80022000C000C001B9E
:1002D000000000AA0035002F02000026020000A93D
:1002E000002E003002000026020000AE00230009AC
:1002F00000070005000000AB0024000A000B0010FE
:10030000004C0035082500060017001A0050002C8C
:100310000026001500110019005100045127000F9C
:100320000016001D0052002B082A0031003800285A
:10033000004F000000010001000100010001000069
:1003400000010001001E003A000100010001001F31
:10035000021F003B000100010001002F0220003CB1
:1003600000010001000100300221003D00010001F8
:10037000000100010022003E000000460001002FA5
:100380000A00000100000047000100300A000001DF
:1003900000000001000100010023003F000000AC4C
:1003A0000001003100240040000100010001001E96
:1003B00002250041004E00010001003502260042E6
:1003C000004B00010001000100270043004900012B
:1003D000004C000100350001000100000001000197
:1003E000000100010001000000010001002D004497
:1003F0000001000100010021022E00450001000162
:100400000001002F002002680001000100010030FF
:10041000002E026900010001000100010022026AB1
:10042000000000460001000100000001000000473C
:1004300000010001000000010000000100010001B6
:100440000023026B000000AC00010031022D026CA1
:1004500000010001000100240225026D00010001DD
:10046000000100350026026E004E0001000100016F
:100470000027026F004B000100010001003502015E
:1004800000490000000030010001000100010000EF
:100490000000000000F2000000010001000000F078
:1004A00000F10000000100010000000000F3000066
:1004B00000010001000000FA00F900000001000145
:1004C0000000000000000001000000010001000128
:1004D0000000000100000001000100010000000117
:1004E00000000001000000000050000000000001BA
:1004F000000000F40051000000010001000000F5C0
:10050000005200000006530008000000004F0000E9
:10051000000052E200000000000000000002520152
:100520000001000100010001000152000001000172
:1005300000010001000100000001000100010001B4
:1005400000010001000100010001000100E30001C1
:10055000000100010001000100E200E300010001D0
:100560000001000100010001000100010001000183
:100570000000000100010001000000010000000176
:100580000001000100000001000000010001000165
:100590000001000100000001000100010001000154
:1005A0000001000100010001000100010001000143
:1005B0000001000100010001000100010001000133
:1005C0000001000100010001000100010001000123
:1005D000000100000000000000000000002A2B289D
:1005E000000000000000000000000000000000000B
:1005F00029000000002C1E34202122243426272527
:100600002E362D3738271E1F20212223242526335E
:1006100033362E37381F0405060708090A0B0C0D60
:100620000E0F101112131415161718191A1B1C1D72
:100630002F3130232D350405060708090A0B0C0D50
:100640000E0F101112131415161718191A1B1C1D52
:100650002F3130354C000000000000000000000089
:10066000000000000000000000000000000000008A
:100670000000000000000101010101010001010171
:100680000100000000000000000000000000000168
:10069000000100010101010101010101010101014C
:1006A000010101010101010101010101010101013A
:1006B0000000000101000000000000000000000038
:1006C000000000000000000000000000000000002A
:1006D000010101010016034500720067006F00442C
:1006E000006F007800200045005A00000016034506
:1006F00000720067006F0044006F00780020004522
:10070000005A0000000403090409026D00040100FE
:10071000A0FA0904000001030101000921110100F0
:10072000012240000705810308000A0904010001B5
:1007300003010200092111010001224D0007058279
:100740000308000A09040200010300000009211146
:100750000100012236000705830308000A0904038B
:1007600000010300000009211101000122390007E6
:100770000584031000011201100100000008EDFEC5
:10078000071301000102000105010906A101050787
:1007900019E029E715002501950875018102050872
:1007A00019012905950575019102950175039101BE
:1007B0000507190029771500250195787501810233
:1007C000C005010980A101850216010026B7001AA3
:1007D00001002AB700751095018100C0050C0901C0
:1007E000A1018503160100269C021A01002A9C0221
:1007F000751095018100C005010902A1010901A13F
:1008000000050919012905150025019505750181C6
:100810000295017503810105010930093115812512
:100820007F95027508810609381581257F95017528
:10083000088106050C0A38021581257F9501750887
:100840008106C0C005010906A101050719E029E7D5
:100850001500250195087501810295017508810132
:100860000508190129059505750191029501750382
:1008700091010507190029FF150026FF009506754F
:10088000088100C00000000000000000000000011E
:100890000204060A0F17202C3A4A5D71879DB3C7E0
:1008A000DAE9F5FCFFFCF5E9DAC7B39D87715D4A2B
:1008B0003A2C20170F0A0604020100000000000075
:1008C0000000000011241FBECFEFDAE0DEBFCDBF75
:1008D00004B603FE24C08091010290910202A0910F
:1008E0000302B09104028730904BA740B04BB9F49B
:1008F000109201021092020210920302109204025E
:1009000014BE84B7877F84BF88E10FB6F8948093C4
:100910006000109260000FBEE0E0FFE3099511E077
:10092000A0E0B1E0E4E8FAE402C005900D92A4333F
:10093000B107D9F722E0A4E3B1E001C01D92A130D4
:10094000B207E1F70E941B0D0C9440250C940000A7
:100950001092B9008AE08093B800089594EA9093C9
:10096000BC009091BC0097FFFCCF9091B900987F9C
:10097000983021F0903111F081E008958093BB0010
:1009800084E88093BC008091BC0087FFFCCF8091FD
:10099000B900887F883111F0803471F780E00895C4
:1009A00084E98093BC008091BC0084FDFCCF089555
:1009B0008093BB0084E88093BC008091BC0087FFDB
:1009C000FCCF9091B900987F81E0983209F480E0E3
:1009D000089584E88093BC008091BC0087FFFCCF21
:1009E0008091BB00089580B38C7080BB81B3836F0E
:1009F00081BB089580910101811115C080E40E949E
:100A0000AE048093010181110CC082E10E94D804E0
:100A100080930101811105C08FEF0E94D80480935B
:100A200001010E94D00484B1807F84B985B1807FA8
:100A300085B98AB1837F8AB98BB1837F8BB93E98A0
:100A4000469808950E94C106809301010E94FA040D
:100A50000E94F304E3E4F1E0A5E3B1E011921D92FA
:100A600081E0E135F807D1F70C94AB060E94C1068E
:100A7000809301010E94FA040E94F304E3E4F1E090
:100A8000A5E3B1E011921D9281E0E135F807D1F7BD
:100A90000895BF92CF92DF92EF92FF920F931F9330
:100AA000CF93DF9380910101882379F08091340105
:100AB0008F5F80933401811108C00E94C10680932A
:100AC0000101811102C00E94530605E311E0C0E05C
:100AD000D0E0DD24D39482E0C82EEE24E394F12C00
:100AE000C73000F580910101811162C080E40E944D
:100AF000AE0480930101811112C082E10E94D804EA
:100B00008093010181110BC0C7010C2E01C0880F19
:100B10000A94EAF780950E94D804809301010E940C
:100B2000D00446C0CA30A1F028F4C83059F0C9300A
:100B300061F005C0CC3089F070F0CD3089F0209A9A
:100B4000289810C0219A29980DC0229A2A980AC084
:100B5000239A2B9807C0529A01C0539A5B9802C0FF
:100B60003E9A4698E0EAEA95F1F78FB179995AC032
:100B700092E081708D25892B7C9B02C090E001C0A2
:100B800094E0892B7D9B02C090E001C098E0892B06
:100B90007E9B02C090E001C090E1892B9FB19095AF
:100BA000991F9927991F9295990F907E892B0FC0B5
:100BB0008091010181114BC080E40E94AE048093BA
:100BC0000101882389F1B12C0E94D0048B2DF801FA
:100BD0009081981719F08083C09200010E94FA0456
:100BE00021960F5F1F4FCE30D10509F079CF80914C
:100BF0000001882371F1815080930001882339F02E
:100C00008FE99FE00197F1F700C0000022C0A3E444
:100C1000B1E0E5E3F1E081918D9391E0E334F907F0
:100C2000D1F717C090E0A5CF83E10E94D80480934C
:100C300001018111C8CF81E40E94AE0480930101BB
:100C40008111C1CF0E94E904B82EB094BDCF80E0DD
:100C5000BECF0E94510681E0DF91CF911F910F918D
:100C6000FF90EF90DF90CF90BF900895E82FF0E0D5
:100C7000ED5BFE4F8081089508951F93CF93DF931E
:100C8000C3E4D1E010E0899190E00E94941D180F18
:100C900081E0C135D807B9F7812FDF91CF911F913E
:100CA00008950C941E0756985E9825982D982698BE
:100CB0002E9827982F988FEF90E09093890080933B
:100CC000880090938B0080938A0090938D0080938E
:100CD0008C00259A2D9A2FEF80E792E021508040DA
:100CE0009040E1F700C00000269A2E9A2FEF80E78F
:100CF00092E0215080409040E1F700C00000279A28
:100D00002F9A2FEF80E792E0215080409040E1F74A
:100D100000C0000025982D982FEF80E792E0215029
:100D200080409040E1F700C0000026982E982FEFF9
:100D300080E792E0215080409040E1F700C0000041
:100D400027982F9856985E9825982D9826982E9833
:100D500027982F98089589EA8093800089E08093EE
:100D6000810024982C983F988AB18F748AB96E9824
:100D7000479A8BB1806B8BB9769A0E9453060C947C
:100D80001D0780E2809301018091510181110EC005
:100D90000E94A80481E0809351012FEF83ED90E33E
:100DA000215080409040E1F700C0000080E40E94A4
:100DB000AE048093010181112EC00E94D80480935B
:100DC0000101811128C00E94D80480930101811182
:100DD00022C08FE30E94D8048093010181111BC0BF
:100DE0000E94D00480E40E94AE048093010181112E
:100DF00012C08CE00E94D8048093010181110BC0C5
:100E00000E94D80480930101811105C08FE30E94E4
:100E1000D804809301010E94D004809101010895BB
:100E2000611108C0FC018281882321F08AE091E0F1
:100E30000E94200980E090E0089508956091C20129
:100E40007091C3018091C4019091C5010E94A01DC1
:100E500056985E9825982D9826982E9827982F9822
:100E6000813019F0823021F00895259A2D9A089545
:100E7000269A2E9A089581E0089581E008950C94B1
:100E80003D070895282F882339F090E02A3010F488
:100E90004D9608950697089587E290E00895BF92D1
:100EA000CF92DF92EF92FF920F931F93CF93DF9336
:100EB0008C01FC01C081D181CE010E941B1CBE01AE
:100EC0000E94CA0AEC01B8010E943F07882309F476
:100ED000ACC1F8018281882309F441C0809162018C
:100EE000811126C0C431F0E7DF07C9F50E94410730
:100EF00081E0809362010E943A1E90936101809389
:100F000060011092550110925701109256011092F3
:100F100059011092580110925B0110925A011092DF
:100F20005D0110925C0110925F0110925E017DC123
:100F300080916001909161010E94461E883C91055C
:100F400070F480915501E82FF0E0EE0FFF1FEA5A90
:100F5000FE4FD183C0838F5F8093550166C1C1303E
:100F600020E8D20708F451C0F8018281882309F4EF
:100F70004CC06E01E894D7F880915401813079F02B
:100F800050F08230C1F482EE0E946F1387E50E9418
:100F90006F1387E50EC082EE0E946F130CC080EEC7
:100FA0000E946F1381EE0E946F1388E10E946F13FD
:100FB00088E10E9437148CE0E82EF12CC6010E2C3B
:100FC00002C0969587950A94E2F78F700E944207B7
:100FD000B82E0E946F138B2D0E943714F4E0EF1A85
:100FE000F1082CEFE2162FEFF20641F78091540141
:100FF000813029F010F0823041F482EE04C080EE9E
:101000000E94371481EE0E943714C43180E7D8075C
:1010100060F4C23090E7D90780F5C115E0E7DE073C
:1010200071F0C130D047F1F0EFC0C33320E7D207F1
:1010300009F4BEC0C433D04709F4CEC0E5C0F801FE
:101040008281882309F4E5C00E94F016FFEF24E3B3
:101050008CE0F15020408040E1F700C000000E9489
:10106000941EE3C0F8018281882309F4D2C08091E4
:10107000DF0181608093DF01D8C0F801828188237D
:1010800009F4C7C00E94EF1E811102C00E94D51E44
:101090000E94021F90E09093F3018093F201C2300E
:1010A000F0E7DF0721F48091F20181607AC0C3305C
:1010B00020E7D20721F48091F201826072C0C4302F
:1010C00080E7D80721F48091F20184606AC0C530BE
:1010D00090E7D90719F48091F20127C0C630E0E704
:1010E000DE0721F48091F20180615BC0C730F0E738
:1010F000DF0721F48091F201806253C0C83020E7FD
:10110000D20721F48091F20180644BC0C93080E79E
:10111000D80721F48091F201806843C0CA3090E77B
:10112000D90729F48091F201846088603AC0CB30FD
:10113000E0E7DE0721F48091F2018E7F32C0CC30EF
:10114000F0E7DF0721F48091F2018D7F2AC0CD30D6
:1011500020E7D20721F48091F2018B7F22C0CE30AC
:1011600080E7D80719F48091F2011AC08091F2014A
:10117000CF3090E7D90711F48F7E13C0C031E0E77C
:10118000DE0711F48F7D0DC0C131F0E7DF0711F4E8
:101190008F7B07C0C231D04711F48F7702C08B7F9D
:1011A000877F8093F2018091F2010E94061F3DC06B
:1011B000F8018281882321F01092520182E013C04D
:1011C00080915201811106C086E20E946F1386E26F
:1011D0000E94371482E015C0F8018281882331F023
:1011E0001092530180E20E9486141FC08091530127
:1011F000811106C087E20E946F1387E20E943714B4
:1012000080E20E948D1411C081E08093520180938E
:101210005301C801DF91CF911F910F91FF90EF9083
:10122000DF90CF90BF900C943B0780E0DF91CF918F
:101230001F910F91FF90EF90DF90CF90BF90089596
:101240001F93CF93DF93EC01FE0124912223F1F051
:1012500030E0F901EB52FA4F1491F901EB5AF94FD2
:101260002491222359F081EE0E946F13812F0E9456
:101270006F13812F0E94371481EE04C0812F0E94CA
:101280006F13812F0E9437142196DECFDF91CF910B
:101290001F91089526E0729FF001112444E5849F78
:1012A000E00DF11D1124E60FF11DEE0FFF1FE35CB1
:1012B000FE4F859194910E94DC0A811520E49207EB
:1012C000B0F5811540E3940708F0DDC0803E91053C
:1012D000D8F4803C910508F06BC0883A910578F409
:1012E000853A910508F06AC08130910509F450C132
:1012F00008F40DC18430910508F04AC108C18B3B48
:10130000910508F466C003C18F3F910509F048F4C8
:10131000803F910508F0ACC0883E910508F438C1C3
:10132000F6C0811520E2920708F0A4C00895811547
:1013300043E5940790F4811522E5920708F0C7C0B1
:10134000811541E5940708F0BDC0811520E592079D
:1013500008F09CC09F70906A0895811545E5940738
:10136000D0F4811524E5920708F0C6C0282F2695F1
:10137000269540E2249F90011124AC01437055272B
:1013800081E090E002C0880F991F4A95E2F7822B16
:10139000932B9A680895811546E5940708F4B1C027
:1013A0009C0130562115304108F0B1C09F70ADC08E
:1013B000FC01EE0FFF1FED54F04062C0853A91052D
:1013C00009F4A8C0863A910509F4A7C083E890E41F
:1013D0000895883A910509F4A3C0893A910509F462
:1013E000A2C08A3A910509F4A1C08B3A910509F48B
:1013F000A0C08C3A910509F49FC08D3A910509F47B
:101400009EC0803B910509F49DC08E3A910509F478
:101410009CC08F3A910509F49BC0813B910509F46A
:101420009AC0823B910509F499C0833B910509F468
:1014300098C0843B910509F497C0853B910509F458
:1014400096C0863B910509F495C0873B910509F448
:1014500094C0883B910509F493C0893B910509F438
:1014600092C08A3B910509F091C08AE296E4089502
:10147000906508959F70880F991F8D5C9E4FFC01A9
:101480008591949108959927906C0895482F437001
:1014900021E030E002C0220F331F4A95E2F73C689A
:1014A000AC0164E0569547956A95E1F74370342B9B
:1014B0008F708695869540E2849FC0011124822B0F
:1014C000932B0895982F8827816F906A0895282F6D
:1014D0002695269540E2249F90011124AC0143708B
:1014E000552781E090E002C0880F991F4A95E2F7E6
:1014F000822B932B9C680895982F8827846F906A7D
:1015000008958F719927982F88279062089580E019
:1015100090E0089581E890E4089582E890E40895C9
:1015200082EE94E4089589EE94E408958AEE94E4BA
:10153000089585EB94E4089586EB94E4089587EB91
:1015400094E408958CEC94E408958DEC94E408956B
:1015500083E895E408958AE895E4089582E995E49E
:10156000089584E995E4089581E296E4089583E27C
:1015700096E4089584E296E4089585E296E4089559
:1015800086E296E4089587E296E4089580E094E484
:101590000895089596E0799FF001112494E5899FBC
:1015A000E00DF11D1124E60FF11DEE0FFF1FE35CAE
:1015B000FE4F8591949108958238910549F1B0F4D8
:1015C0008133910509F459C048F48932910509F431
:1015D0004FC08A32910509F455C0089585339105AD
:1015E00009F441C08933910599F00895833E91052E
:1015F00031F138F4803E910591F0823E9105A9F0D9
:101600000895863E910501F1873E910539F10895CF
:101610002091F20120FD3BC021FD39C00895809149
:10162000F20180FF34C089E341C08091F20182FF62
:1016300032C08091F20184FF2CC080E037C08091DD
:10164000F20182FD28C0F5CF8091F20183FF25C011
:101650008091F20184FDF1CF87EE28C08091F201E4
:1016600083FD1BC0F5CF8091F20185FF18C019C022
:101670008091F20185FF15C012C08091F20186FFB2
:1016800012C013C08091F20186FF0FC00CC080EE23
:101690000DC083EE0BC082EE09C086EE07C085E365
:1016A00005C089E203C081E301C08AE290E00895A9
:1016B00008950C94580B809173010895CF93DF9394
:1016C00000D01F92CDB7DEB72091F801243019F574
:1016D00023E029839B838A832093E9008FEF9091F5
:1016E000E800815095FD06C095ED9A95F1F7000050
:1016F0008111F5CF8091E80085FF0DC040E050E0FA
:1017000063E070E0CE0101960E94C40D8091E80074
:101710008E778093E8000F900F900F90DF91CF911C
:101720000895CF93DF9300D01F92CDB7DEB72091FD
:10173000F801243021F522E029839B838A8383E00A
:101740008093E9008FEF9091E800815095FD06C0ED
:1017500095ED9A95F1F700008111F5CF8091E800A1
:1017600085FF0DC040E050E063E070E0CE010196DF
:101770000E94C40D8091E8008E778093E8000F905E
:101780000F900F90DF91CF9108952091F8012430B0
:10179000F1F422E02093E9002FEF3091E80021508E
:1017A00035FD06C035ED3A95F1F700002111F5CF72
:1017B0002091E80025FF0BC040E050E065E070E0BC
:1017C0000E94C40D8091E8008E778093E800089510
:1017D000CF93DF93EC018091F801843009F046C08B
:1017E00090910C019923D9F090910D019923B9F0B2
:1017F0008093E9008FEF9091E800815095FD06C03D
:1018000095E19A95F1F700008111F5CF8091E800FC
:1018100085FF2CC040E050E060E170E017C081E03F
:101820008093E9008FEF9091E800815095FD06C00C
:1018300095ED9A95F1F700008111F5CF8091E800C0
:1018400085FF14C040E050E068E070E0CE010E94E7
:10185000C40D8091E8008E778093E80080E1FE015E
:10186000A3E6B1E001900D928A95E1F7DF91CF9167
:1018700008958091F701811109C00E94560F0E94BE
:10188000B30F8091E20084608093E200089510928B
:10189000F701089508950C9468230E942B1E0E945E
:1018A0006E230E9450120C94590B42E061EC81E0CF
:1018B0000E94D00E42E061EC82E00E94D00E42E035
:1018C00061EC83E00E94D00E42E161EC84E00C9474
:1018D000D00E8091FA01833009F455C030F4813084
:1018E00071F0823009F48EC008958A3009F47AC00C
:1018F0008B3009F460C0893009F09CC020C0809111
:10190000F901813A09F096C08091E800877F8093C1
:10191000E8008091FD019091FE01892B21F060E0AB
:1019200080E090E003C060E183E691E070E00E9417
:101930000D0E8091E8008B778093E80008958091E8
:10194000F901813209F076C08091FD019091FE018C
:10195000009719F0039709F06DC08091E800877F28
:101960008093E8008091E80082FD05C08091F80135
:101970008111F8CF5FC08091F10080937301809155
:10198000E8008B7753C08091F901813A09F052C089
:101990008091FD019091FE01892B09F04BC080914F
:1019A000E800877F8093E8008091E80080FFFCCF0B
:1019B00080910C0136C08091F9018132D9F5809176
:1019C000FD019091FE01892BA9F58091E800877FA8
:1019D0008093E8000E94050F8091FB0180930C0129
:1019E0000C94F0168091F901813221F58091E80084
:1019F000877F8093E8000E94050F8091FC0180930F
:101A0000740108958091F901813AA1F48091E80070
:101A1000877F8093E8008091E80080FFFCCF809171
:101A200074018093F1008091E8008E778093E80044
:101A30000C94050F089584B7877F84BF88E10FB6A3
:101A4000F89480936000109260000FBE80E880934D
:101A50006100109261000E949F120E94560F0E9426
:101A6000B30F8091E20084608093E20078940E943A
:101A70002E120E94A11282E091E00E944B120E945D
:101A800056238091F801853069F40E94F31D8091FE
:101A9000F6018823B1F30E941D1E882391F30E9452
:101AA000AE0DEFCF0E94A712ECCF292F33272330A2
:101AB0003105A9F06CF42130310509F442C022301F
:101AC000310509F043C08DE690E029E037E042C0DF
:101AD00021323105C9F02232310519F137C0992779
:101AE0008130910541F08230910541F0892B71F5EB
:101AF000E5E0F7E005C0EDEEF6E002C0E5EDF6E06A
:101B0000849190E09F0126C0643000F5E62FF0E05C
:101B1000EE0FFF1FEE5DFE4F2081318189E090E0E6
:101B200019C0643098F4E62FF0E0DF01AA0FBB1F64
:101B3000A65EBE4F2D913C91EA5EFE4F808190E003
:101B400009C082E190E026E737E004C080E090E041
:101B500020E030E0FA0131832083089580E189BDDF
:101B600082E189BD09B400FEFDCF8091D8008F7D50
:101B70008093D8008091E00082608093E0008091A3
:101B8000E00081FDFCCF0895CF92DF92EF92FF92AB
:101B90000F931F93CF93DF937C018B01EA010E9487
:101BA000260F811131C0209731F088819981081B5F
:101BB000190BE80EF91EC12CD12C0115110519F1D4
:101BC0008091E80085FD14C08091E8008E778093B5
:101BD000E800209741F0888199818C0D9D1D9983A3
:101BE000888385E011C00E94260F882331F30CC042
:101BF000F70181917F018093F10001501109FFEFFE
:101C0000CF1ADF0ADACF80E0DF91CF911F910F91D9
:101C1000FF90EF90DF90CF9008952091FF013091D9
:101C200000022617370748F06115710539F4209135
:101C3000E8002E772093E80001C0B901FC0120E004
:101C400061157105B9F18091F801882309F440C04C
:101C5000853009F43FC08091E80083FD3DC080914C
:101C6000E80082FF06C08091E80082FF26C080E085
:101C700008958091E80080FFE3CF2091F3008091E8
:101C8000F20090E0922B6115710551F088309105BA
:101C900038F421912093F100615071090196F3CF3E
:101CA00021E0089709F020E08091E8008E7780938A
:101CB000E800C6CF2111C7CFD6CF8091F801882385
:101CC00039F0853039F08091E80083FFCCCF04C033
:101CD00082E0089583E0089581E008952091FF0156
:101CE000309100022617370748F06115710539F465
:101CF0002091E8002E772093E80001C0B901FC0193
:101D000020E061157105C1F18091F801882309F483
:101D100041C0853009F440C08091E80083FD3EC099
:101D20008091E80082FF06C08091E80082FF27C012
:101D300080E008958091E80080FFE3CF2091F300D8
:101D40008091F20090E0922B6115710559F0883076
:101D5000910540F424912093F1003196615071096E
:101D60000196F2CF21E0089709F020E08091E80089
:101D70008E778093E800C5CF2111C6CFD5CF809153
:101D8000F801882339F0853039F08091E80083FF2D
:101D9000CBCF04C082E0089583E0089581E00895E8
:101DA000982F973058F59093E900981739F0709173
:101DB000EC002091ED005091F00003C0242F762F0D
:101DC00050E021FF19C03091EB003E7F3093EB00D3
:101DD0003091ED003D7F3093ED003091EB003160AC
:101DE0003093EB007093EC002093ED005093F000E3
:101DF0002091EE0027FF07C09F5FD3CF8F708093A5
:101E0000E90081E0089580E008958091F90187FD5F
:101E100005C08091E80080FF0EC012C08091E800EC
:101E200082FD05C08091F8018111F8CF089580915D
:101E3000E8008B7708C08091F8018111EACF0895FE
:101E40008091E8008E778093E80008958091E40007
:101E50009091E50045E62091EC0020FF21C0209103
:101E6000E80020FD21C02091F801222389F02530CF
:101E700089F02091EB0025FD0FC02091E400309106
:101E8000E5002817390739F3415041F0C901E3CF84
:101E900082E0089583E0089581E0089584E0089544
:101EA0002091E80022FFDFCF80E008950E94C40F58
:101EB0000E94CC0FE0EEF0E0808181608083E8ED4D
:101EC000F0E080818F77808319BCA7EDB0E08C9122
:101ED0008E7F8C9380818F7E80831092F70108958E
:101EE0000F931F93CF93DF930E94C40F0E94CC0FD8
:101EF000C8EDD0E088818F77888388818068888367
:101F000088818F7D888319BC1092F8011092F401AA
:101F10001092F6011092F50100EE10E0F8018081B8
:101F20008B7F808388818160888342E060E080E0ED
:101F30000E94D00EE1EEF0E080818E7F8083E2EEA1
:101F4000F0E0808181608083808188608083F801F7
:101F500080818E7F8083888180618883DF91CF91AB
:101F60001F910F910895E8EDF0E080818F7E8083CE
:101F7000E7EDF0E080818160808384E082BF81E0D2
:101F80008093F7010C94700FE8EDF0E080818E7F74
:101F900080831092E20008951092DA001092E1001E
:101FA00008951F920F920FB60F9211242F933F9313
:101FB0004F935F936F937F938F939F93AF93BF9351
:101FC000EF93FF938091E10082FF0BC08091E200CC
:101FD00082FF07C08091E1008B7F8093E1000E9427
:101FE0002D128091DA0080FF1FC08091D80080FF01
:101FF0001BC08091DA008E7F8093DA008091D90037
:1020000080FF0DC080E189BD82E189BD09B400FE79
:10201000FDCF81E08093F8010E94390C05C019BC06
:102020001092F8010E94470C8091E10080FF19C0D6
:102030008091E20080FF15C08091E2008E7F809346
:10204000E2008091E20080618093E2008091D800FC
:1020500080628093D80019BC85E08093F8010E94CB
:102060004B0C8091E10084FF30C08091E20084FF3E
:102070002CC080E189BD82E189BD09B400FEFDCF9D
:102080008091D8008F7D8093D8008091E1008F7E71
:102090008093E1008091E2008F7E8093E200809146
:1020A000E20081608093E2008091F401882311F0C6
:1020B00084E007C08091E30087FF02C083E001C095
:1020C00081E08093F8010E944D0C8091E10083FF34
:1020D00029C08091E20083FF25C08091E100877FC5
:1020E0008093E10082E08093F8011092F4018091E6
:1020F000E1008E7F8093E1008091E2008E7F8093EB
:10210000E2008091E20080618093E20042E060E0C2
:1021100080E00E94D00E8091F00088608093F000F3
:102120000E944A0CFF91EF91BF91AF919F918F91C7
:102130007F916F915F914F913F912F910F900FBEC3
:102140000F901F9018951F920F920FB60F921124A7
:102150002F933F934F935F936F937F938F939F93AF
:10216000AF93BF93CF93EF93FF93C091E900CF70EC
:102170008091EC001092E9008091F000877F8093BD
:10218000F00078940E94DF101092E9008091F00036
:1021900088608093F000C093E900FF91EF91CF91A8
:1021A000BF91AF919F918F917F916F915F914F916F
:1021B0003F912F910F900FBE0F901F9018951F9376
:1021C000CF93DF93CDB7DEB7AA970FB6F894DEBFF3
:1021D0000FBECDBFE9EFF1E08091F100819322E0E5
:1021E000E130F207C9F70E94690C8091E80083FF93
:1021F0001CC12091F9013091FA01832F90E08A30BF
:10220000910508F012C1FC01EA5AFF4F0C94F0242A
:10221000203881F0223809F008C18091FD018F70CB
:102220008093E9008091EB0085FB882780F910926C
:10223000E90006C08091F5019091F601911182604C
:102240009091E800977F9093E8008093F1001092BE
:10225000F100C5C0822F8D7F09F0E7C0222319F05D
:10226000223061F0E2C08091FB01813009F0DDC0D5
:10227000333009F080E08093F60128C08091FB01A3
:10228000811124C02091FD012F7009F4CEC020934C
:10229000E9008091EB0080FF19C08091EB003330A2
:1022A00011F4806211C080618093EB0081E090E0C6
:1022B000022E01C0880F0A94EAF78093EA00109278
:1022C000EA008091EB0088608093EB001092E900B7
:1022D0008091E800877F86C02111A7C01091FB0183
:1022E0001F778091E3008078812B8093E3008091B9
:1022F000E800877F8093E8000E94050F8091E80046
:1023000080FFFCCF8091E30080688093E30011237D
:1023100011F083E001C082E08093F80186C020586C
:10232000223008F082C08091FB019091FC018C3D2D
:1023300023E0920779F583E08A838AE289834FB7A5
:10234000F894DE01139620E03EE051E2E32FF0E046
:1023500050935700E49120FF03C0E295EF703F5F78
:10236000EF708E2F90E0EA3010F0C79601C0C09653
:102370008D939D932F5F243149F74FBF8091E800E3
:10238000877F8093E8006AE270E0CE0101960E94A8
:102390000D0E14C0AE014F5F5F4F6091FD010E94B2
:1023A000550D009709F441C02091E800277F209344
:1023B000E800BC0189819A810E946E0E8091E8003C
:1023C0008B778093E80031C0203879F58091E80060
:1023D000877F8093E8008091F4018093F1008091E1
:1023E000E8008E778093E8000E94050F1EC021113F
:1023F0001CC09091FB019230C0F48091E800877F6F
:102400008093E8009093F4010E94050F8091F401FD
:10241000811104C08091E30087FF02C084E001C005
:1024200081E08093F8010E94550C8091E80083FFC1
:102430000AC08091E800877F8093E8008091EB00DC
:1024400080628093EB00AA960FB6F894DEBF0FBEB1
:10245000CDBFDF91CF911F9108950895CF938091C3
:10246000F8018823B1F08091E9008F709091EC0021
:1024700090FF02C090E801C090E0C92FC82B1092D5
:10248000E9008091E80083FD0E94DF10CF70C093C7
:10249000E900CF91089590937A018093790108958E
:1024A000E0917901F0917A01309721F00190F0816B
:1024B000E02D099480E00895E0917901F0917A018E
:1024C000309721F00280F381E02D09940895E09186
:1024D0007901F0917A01309721F00480F581E02DA7
:1024E000099408952091770130917801821793071C
:1024F00071F09093780180937701E0917901F091E8
:102500007A01309721F00680F781E02D0994089533
:1025100020917501309176018217930771F09093A5
:10252000760180937501E0917901F0917A013097FD
:1025300021F00084F185E02D0994089508950C940C
:102540009E120E94311E0E9422050C94B71E9F927B
:10255000AF92BF92CF92DF92EF92FF920F931F93B1
:10256000CF93DF9300D000D000D0CDB7DEB70E946C
:1025700049058AE8E82E81E0F82E0DE010E0CC2431
:10258000C394D12C902E802F0E943606F701B29072
:102590007F01B826A1F401501109A0F78FEF8983BC
:1025A0008A831B820E943A1E8160782F9D838C83D0
:1025B00049815A816B818D810E94411331C0909174
:1025C000DF0191FF04C08E830E943C068E8125E0CE
:1025D00030E0A601022E01C0440F0A94EAF7A42EAF
:1025E0004B21D1F029839A828A2191E009F490E06D
:1025F0009B830E943A1E8160782F9D838C83498142
:102600005A816B818D810E944113F801E458FE4F7D
:1026100080818A25808304C021503109D0F6BBCF48
:102620000E94842010917B010E9450121817B9F06B
:102630000E94501280937B0126960FB6F894DEBF5D
:102640000FBECDBFDF91CF911F910F91FF90EF9003
:10265000DF90CF90BF90AF909F900C94590B26962F
:102660000FB6F894DEBF0FBECDBFDF91CF911F91A3
:102670000F91FF90EF90DF90CF90BF90AF909F9021
:102680000895CF93DF93CDB7DEB72B970FB6F894AD
:10269000DEBF0FBECDBF4F83588769877A878B8790
:1026A000DE01119686E0FD0111928A95E9F785E039
:1026B000FE01379601900D928A95E1F749815A8182
:1026C0006B817C818D819E810E94C0192B960FB6F3
:1026D000F894DEBF0FBECDBFDF91CF910895CF93A9
:1026E000C82F882309F4C1C0823859F40E945012BF
:1026F00081FDBBC089E30E949B1C0E94651D89E38C
:102700000CC0833879F40E94501280FDAEC083E57E
:102710000E949B1C0E94651D83E50E94DB1CCF91DB
:102720000C94651D843859F40E94501282FD9DC09E
:1027300087E40E949B1C0E94651D87E4EECF8CEF0E
:102740008C0F813A48F48C2F0E94BF2281118DC0DA
:102750008C2F0E949B1CE3CF80E28C0F883048F4C2
:10276000C77081E001C0880FCA95EAF70E941C1D5E
:10277000D6CF8BE58C0F833078F4C53A29F0C63A72
:1027800031F482E890E005C081E890E002C083E87F
:1027900090E0CF910C94721288E58C0F833108F091
:1027A00064C0C83A39F1C93A41F1CA3A49F1CB3A61
:1027B00051F1CC3A59F1CD3A61F1C03B69F1CE3AD1
:1027C00071F1CF3A79F1C13B81F1C23B89F1C33B51
:1027D00091F1C43B99F1C53BA1F1C63BA9F1C73BBF
:1027E000B1F1C83BB9F1C93BC1F1CA3BC9F58AE2B5
:1027F00092E038C082EE90E035C089EE90E032C0C1
:102800008AEE90E02FC085EB90E02CC086EB90E044
:1028100029C087EB90E026C08CEC90E023C08DECC3
:1028200090E020C083E891E01DC08AE891E01AC0E2
:1028300082E991E017C084E991E014C081E292E05E
:1028400011C083E292E00EC084E292E00BC085E208
:1028500092E008C086E292E005C087E292E002C002
:1028600080E090E0CF910C948812CF910895882356
:1028700009F44BC0823859F40E94501281FF45C0C0
:1028800089E30E949B1C0E94651D89E30CC083386C
:1028900071F40E94501280FF38C083E50E949B1C97
:1028A0000E94651D83E50E94DB1C0C94651D843825
:1028B00059F40E94501282FF28C087E40E949B1C9A
:1028C0000E94651D87E4EFCF9CEF980F913A58F373
:1028D00090E2980F983050F4877091E001C0990F02
:1028E0008A95EAF7892F0E94221DDFCF9BE5980F7A
:1028F000933020F480E090E00C947212885A833177
:1029000020F480E090E00C9488120895882321F050
:102910000E941C1D0C94651D0895882321F00E94BF
:10292000221D0C94651D08958F929F92AF92BF92C5
:10293000CF92DF92EF92FF920F931F93CF93DF938B
:102940001F92CDB7DEB74C01A62E472FFC01E580C4
:10295000E2948FE0E822F280FF2021F079830E9448
:10296000391D498149830E94941C4981882381F043
:10297000FF2071F080E28A0D883050F082E00E94E2
:102980007D1C0E94941CBB24B394B826498101C0CD
:10299000B12CE42FE295EF70F0E0E05AFF4F0C9479
:1029A000F024842F807F142F1F70882311F012953C
:1029B000107FFF2089F0112309F48DC180E28A0D78
:1029C000883020F4812F0E941C1D03C0812F0E949B
:1029D0002C1D0E94651D7FC18A2D0E943714112372
:1029E00009F490C180E28A0D883020F4812F0E9482
:1029F000221D03C0812F0E94321D0E94651D82C1CD
:102A0000242F207F842F8F70203211F08295807FB9
:102A1000AA2021F0F1E0AF16B9F020C0FF2049F064
:102A2000EE2009F40FC191E0E9120CC10E944C1D87
:102A300069C1EE2021F0E1E0EE1609F463C189835B
:102A40000E944F1D898104C1FF2029F0F1E0FE158D
:102A500008F458C1F7C0E11055C1FAC0FF2021F0B9
:102A6000EE2009F4EFC037C1EE2009F4F1C039C1FE
:102A7000242F26952695237030E02115310521F06D
:102A80002130310561F03EC1FF2021F08A2D942FC5
:102A9000937002C080E090E00E94721233C1FF2068
:102AA00021F08A2D942F937002C080E090E00E9464
:102AB000881228C18A2DFF2019F00E948C1F02C0A5
:102AC0000E94F41F0E9479201DC1842F837009F099
:102AD0004EC0F11017C12A2D229526952770220F7E
:102AE000220F8A2D8F70C82ED12CE12CF12C022EB2
:102AF00004C0CC0CDD1CEE1CFF1C0A94D2F7A4FE13
:102B000010C06FE070E080E090E004C0660F771FB7
:102B1000881F991F2A95D2F760957095809590959A
:102B200003C060E070E0CB01242F2695269523702A
:102B300030E02230310569F02330310589F06C290D
:102B40007D298E299F292130310571F00E94121BA9
:102B5000D9C06C297D298E299F290E942C1BD2C0A7
:102B60000E94121BC701B6010E94F81ACBC0FF20B9
:102B700019F0842F817001C08695882309F4C2C0A2
:102B80002A2D229526952770220F220F8A2D8F70CD
:102B9000C82ED12CE12CF12C022E04C0CC0CDD1C53
:102BA000EE1CFF1C0A94D2F7A4FE10C06FE070E088
:102BB00080E090E004C0660F771F881F991F2A9558
:102BC000D2F7609570958095909503C060E070E0B5
:102BD000CB01242F26952695237030E02230310535
:102BE00069F02330310589F06C297D298E299F29D0
:102BF0002130310571F00E94E61B84C06C297D29CB
:102C00008E299F290E94001C7DC00E94E61BC701DF
:102C1000B6010E94CC1B76C00A2D10E0F801E05EE0
:102C2000F109E531F10508F052C0E059FF4F0C946D
:102C3000F0241A2D1F70842F8F71FF2031F00E9415
:102C4000651B812F0E9486145DC00E94861B812F08
:102C50000E948D1457C0FF2039F0E11053C0842F1B
:102C60008F710E94AB1B4EC081E08E1508F44AC0E4
:102C7000F6CFFF2039F0842F8F710E94651B42C070
:102C8000FF20C9F3842F8F710E94861B3BC0FF2059
:102C900029F0842F8F710E94501B34C00E94461B64
:102CA00031C0FF2051F0142F1F71812F0E94651B2E
:102CB00063E0812F0E94741C25C081E00E947D1C6E
:102CC00091E09E15F8F482E00E947D1C1BC0FF205D
:102CD00031F0EE2081F28A2D0E946F1313C0EE2096
:102CE00089F28A2D0E9437140DC04F706A2DC401DD
:102CF0000E9410070E946D1A05C04F706A2DC40112
:102D00000E94C90ABB20F1F00E94701C80FD1AC00D
:102D1000F40112820E946A1C0E94651BC4010E9479
:102D2000B0160E946A1C0F90DF91CF911F910F91F6
:102D3000FF90EF90DF90CF90BF90AF909F908F90DB
:102D40000C94861B0F90DF91CF911F910F91FF90F4
:102D5000EF90DF90CF90BF90AF909F908F900895AD
:102D60000F931F93CF93DF93EC01288139818B81DF
:102D70009C81892B31F03F3F11F080E003C02F3F51
:102D8000E1F781E0811113C0CE010E944F07882333
:102D900071F0688179818A810E94661C8C010E9491
:102DA0001A1C0E94ED1AB801CE010E949414DF9102
:102DB000CF911F910F9108950E94391D0E94491DC6
:102DC0000E940E1D0E94651D0E9425210E947920EF
:102DD00080E090E00E94721280E090E00C948812F3
:102DE0000E94291D0C94DC160E945B1C292F229541
:102DF0002F7030E02C3031054CF42A3031056CF462
:102E00002250310922303105B0F407C02C30310591
:102E100071F02F30310559F00EC0803F31F018F4B9
:102E2000803E48F402C0843F31F481E0089593FB72
:102E3000882780F9089580E00895CF93DF9300D02C
:102E400000D01F92CDB7DEB70F900F900F900F906C
:102E50000F90DF91CF910895CF93DF9300D000D0F2
:102E600000D0CDB7DEB726960FB6F894DEBF0FBE02
:102E7000CDBFDF91CF9108951F93CF93DF93C09182
:102E80008A0116E080918B01C81799F0D0E01C9F51
:102E9000F0011D9FF00D1124E457FE4F4081518138
:102EA00062817381848195810E942C172196C7705D
:102EB000E9CFDF91CF911F9108954091BC015091CE
:102EC000BD016091BE017091BF018091C0019091E0
:102ED000C1010C942C17CF938091C10182958F7002
:102EE00009F05FC08091BE01882309F45AC0209187
:102EF0008A01A0918B016091BC017091BD0180910C
:102F0000BF019091C00131E06F3F09F030E0B32F75
:102F1000C6E02A1709F445C0009721F07F3F21F44D
:102F20004B2F03C041E001C040E030E040FD35C020
:102F3000C29FF001C39FF00D1124E457FE4F418161
:102F400074132BC04081641328C04281411125C0F5
:102F5000438154814817590710F441505109481BC7
:102F6000590B483C5105C8F48091C1018F708061B4
:102F70008093C10186E0829FF001839FF00D1124B0
:102F8000EF56FE4F80818F70806180838CEB91E0E3
:102F90000E94B016CF910C943C172F5F3F4F2770C3
:102FA000B8CFCF910895CF92DF92EF92FF920F9317
:102FB0001F93CF93DF93CDB7DEB762970FB6F89428
:102FC000DEBF0FBECDBF8C0185E0F801DE011D968E
:102FD00001900D928A95E1F7D8014C9111965C9180
:102FE000119712966C9112971396ED90FC9014978E
:102FF0007091BC01E091BD012091BF013091C001F1
:103000002115310531F0EF3F31F481E07F3F19F4B4
:1030100003C081E001C080E0B82FB170CB2E80FDED
:103020006CC1D090BE01DD2009F4F5C0F091C10162
:10303000E216F30638F0C701821B930B883C91051A
:1030400048F09BC0209530952E0D3F1D283C310542
:1030500008F093C08F2F807F09F052C0E51314C091
:10306000741312C0D62E61110FC0FF70F061F0937F
:10307000C1010E945D178CEB91E00E94B016809117
:10308000C101F80185836CC1EF2831F05F3F31F455
:1030900081E04F3F19F403C081E001C080E080FD72
:1030A00003C081E0862701C080E0F82FF170FF2E79
:1030B00080FF1CC080918A0120918B0136E082172D
:1030C00009F428C190E0389FF001399FF00D1124D8
:1030D000E457FE4F7181571306C07081471303C038
:1030E0007281671303C001968770E9CFD62E6623DD
:1030F00009F436C18091C10181608093C10153C040
:10310000E51308C0741306C0611104C0D8011596F8
:10311000FC93AEC04D875E878D859E856A8B0E942D
:10312000F4166A89882329F1D62E662311F120919D
:10313000C101822F82958F7090E002970CF460C0DD
:103140008091BC019091BD0198878F831986FB8681
:10315000EA862C87CE01079651C0E51731F14D87DD
:103160005E878D859E856A8B0E94F4166A8981111F
:103170002EC0C8010E94B016A4C08F2F807F69F7AF
:103180007E2DF98AE88A89890E941D178CEB91E0CF
:103190000E94B016ECEBF1E086E0DF011D928A950B
:1031A000E9F70E945D17D12CDBC07413D8CF6111F1
:1031B000D6CFD8011596FC93C8010E94B016ECEB4F
:1031C000F1E086E0DF011D928A95E9F7C9C0D62EAD
:1031D000662379F22091C101822F82958F7090E051
:1031E000029774F08091BC019091BD019A8389830C
:1031F0001B82FD82EC822E83CE0101960E94B016C6
:1032000086E0F801ACEBB1E001900D928A95E1F710
:103210000E946B176FC0E216F30628F0C701821BED
:10322000930B9C0104C0209530952E0D3F1D283C2A
:10323000310508F052C0D62E662309F49ACFE51363
:103240002CC074132AC08091C10180FD1DC0982F2D
:1032500092959F70C9F0D80115968C9315979F3061
:1032600039F09F5F9295907F8F70892B15968C9384
:10327000C8010E94B01686E0F801ACEBB1E0019005
:103280000D928A95E1F736C086E0F801ACEBB1E02B
:1032900001900D928A95E1F763C04D875E878D8519
:1032A0009E850E94F416882379F086E0F801ACEB45
:1032B000B1E001900D928A95E1F70E946B170E9490
:1032C0005D17DD24D3944CC08091C101816080934F
:1032D000C101C8010E94B01643C07E2DF98AE88A58
:1032E00089890E941D17ECEBF1E086E0DF011D9259
:1032F0008A95E9F70E945D1733C0662309F439CF38
:103300004D875E878D859E850E94F416882309F47B
:1033100030CFCBCF4D875E878D859E850E945B1C0D
:10332000292F22952F7030E0223031052CF49F7028
:1033300041F0811106C00CC0243031052CF49F707F
:1033400049F4805E883020F0C8010E94B016CF2C6E
:10335000DC2C06C0D80115969C91907F91F7F8CF90
:103360008D2D62960FB6F894DEBF0FBECDBFDF91F4
:10337000CF911F910F91FF90EF90DF90CF90089524
:103380001F93CF93DF93CDB7DEB72C970FB6F8948A
:10339000DEBF0FBECDBF4F83588769877A878B8783
:1033A0009C87CE0107960E94D3178823C1F02F81F6
:1033B00038858A859B85892B31F03F3F11F080E06D
:1033C00003C02F3FE1F781E0811147C04F8158854D
:1033D00069857A858B859C850E942C173EC086E086
:1033E000FE013796DE01119601900D928A95E1F764
:1033F000FF81E8854A855B854115510531F0EF3F36
:1034000031F481E0FF3F19F403C081E001C080E0A6
:1034100080FD23C020918B0130E0C90101968770A7
:10342000992760918A0170E086179707F1F1F98377
:10343000EA835D834C8396E0929FD001939FB00D09
:103440001124A457BE4FFE01319601900D929A951A
:10345000E1F780938B010E943C1716E080918A016E
:1034600090918B01891779F1189FC001112484571D
:103470009E4F0E94D317882331F1E0918A011E9F4D
:10348000F0011124E457FE4F408151816281738124
:10349000848195810E942C1780918A0190E0019689
:1034A0008770992780938A01D9CF0E94F0161092D5
:1034B0008B0110928A01ECEBF1E086E0DF011D92B6
:1034C0008A95E9F7CACF2C960FB6F894DEBF0FBEE7
:1034D000CDBFDF91CF911F910895EF92FF920F938F
:1034E0001F93CF93DF93FC01009709F46FC0F12C79
:1034F000EE24E394EF0121968491843740F48430E4
:1035000008F055C0813081F0823021F15FC08537ED
:1035100009F447C0C0F19CE7980F903708F056C0F7
:103520008F770E94371445C08F010E5F1F4FFE0139
:10353000849190E2980F983050F48770FE2D01C06E
:10354000FF0F8A95EAF78F2F0E943C1D15C00E943D
:103550006F1314C08F010E5F1F4FFE01849190E224
:10356000980F983068F48770FE2D01C0FF0F8A9580
:10357000EAF78F2F0E94421D0E94651DE80119C0C5
:103580000E943714FBCFCF010296FE01C491CC23D9
:1035900061F0EFE9FFE03197F1F700C00000C150A2
:1035A000F6CFCF010296FE01F490EC0102C00E941A
:1035B0006F138F2D882341F0EFE9FFE03197F1F78A
:1035C00000C000008150F6CFFE0194CFDF91CF9173
:1035D0001F910F91FF90EF90089508956093C60199
:1035E0007093C7018093C8019093C9010C94DC16B5
:1035F0000F931F930091C6011091C7012091C8013C
:103600003091C901062B172B282B392B0093C601AB
:103610001093C7012093C8013093C9011F910F91E6
:103620000C94DC160F931F930091C6011091C701F3
:103630002091C8013091C90106231723282339237B
:103640000093C6011093C7012093C8013093C901AC
:103650001F910F910C94DC160F931F930091C601DC
:103660001091C7012091C8013091C9010627172781
:10367000282739270093C6011093C7012093C8015A
:103680003093C9011F910F910C94DC161092C20166
:103690001092C3011092C4011092C5010C94DC1663
:1036A00041E050E060E070E004C0440F551F661F29
:1036B000771F8A95D2F74093C2015093C30160935C
:1036C000C4017093C5010C94DC1641E050E060E049
:1036D00070E004C0440F551F661F771F8A95D2F70C
:1036E0008091C2019091C301A091C401B091C50124
:1036F000842B952BA62BB72B8093C2019093C301EB
:10370000A093C401B093C5010C94DC1641E050E0D5
:1037100060E070E004C0440F551F661F771F8A9554
:10372000D2F740955095609570958091C201909127
:10373000C301A091C401B091C50184239523A623A0
:10374000B7238093C2019093C301A093C401B093A7
:10375000C5010C94DC1641E050E060E070E004C06C
:10376000440F551F661F771F8A95D2F78091C201BB
:103770009091C301A091C401B091C5018427952700
:10378000A627B7278093C2019093C301A093C401D9
:10379000B093C5010C94DC160F931F930091C201E6
:1037A0001091C3012091C4013091C501062B172B44
:1037B000282B392B0093C2011093C3012093C4011D
:1037C0003093C5011F910F910C94DC160F931F933A
:1037D0000091C2011091C3012091C4013091C50133
:1037E00006231723282339230093C2011093C30112
:1037F0002093C4013093C5011F910F910C94DC16E6
:103800000F931F930091C2011091C3012091C40135
:103810003091C50106271727282739270093C201B1
:103820001093C3012093C4013093C5011F910F91E0
:103830000C94DC160895CF92DF92EF92FF920F93D3
:103840001F93CF93DF93EC01C090C601D090C701C6
:10385000E090C801F090C9018091C2019091C3012C
:10386000A091C401B091C501C82AD92AEA2AFB2A2D
:103870000FE110E0B701A601002E04C07695679510
:10388000579547950A94D2F740FD05C0015011099C
:1038900088F780E007C0BE01802F0E944A09019787
:1038A000A9F3802FDF91CF911F910F91FF90EF909F
:1038B000DF90CF900895CF93DF93EC010E941B1C03
:1038C000BE010E944A09DF91CF910895CB010E9469
:1038D0005B1C08958091CA0185958595859508950D
:1038E0008091CA018770089598E0899F9001112402
:1038F000622B6093CA010C94651B4091CA018095AC
:1039000084238093CA01982F977069F450E0282F80
:10391000332727FD30954217530729F08595859564
:1039200085950C94861B08959091CA01977081E04B
:1039300009F480E0089590910C019923D9F09091B9
:103940000D019923B9F0982F9695969596959F30ED
:1039500088F5E0910E01F0910F01E90FF11D8770DC
:1039600021E030E001C0220F8A95EAF78181822BA5
:103970008183089540910E0150910F0120E030E0C5
:103980009FEFFA01E20FF31F6281681799F09F3FE2
:1039900019F4611101C0922F2F5F3F4F2E30310576
:1039A00081F79F3F39F0FA01E90FF11D97FDFA9574
:1039B00082830895089590910C019923E1F09091EC
:1039C0000D019923C1F0982F9695969596959F3065
:1039D00020F5E0910E01F0910F01E90FF11D8770C4
:1039E00021E030E001C0220F8A95EAF7209581811D
:1039F00028232183089540910E0150910F0120E06A
:103A000030E0FA01E20FF31F9281981301C0128295
:103A10002F5F3F4F2E303105A1F7089581E090E0F0
:103A2000E0910E01F0910F01E80FF91F108201964D
:103A300080319105A9F708959091DE01982B90931C
:103A4000DE01089580959091DE0198239093DE0128
:103A500008951092DE0108959091DD01982B9093C6
:103A6000DD01089580959091DD0198239093DD010B
:103A700008951092DD0108959091DC01982B9093A8
:103A8000DC01089580959091DC0198239093DC01EE
:103A900008951092DC0108958093CB01089510924F
:103AA000CB01089540910E0150910F0120E030E0CC
:103AB00080E0FA01E20FF31F918191118F5F2F5F78
:103AC0003F4F2F303105A9F70895E0910E01F09195
:103AD0000F018091DE018083E0910E01F0910F01D2
:103AE00080819091DD01892B8083E0910E01F0911E
:103AF0000F0180819091DC01892B80839091CB0113
:103B0000992361F0E0910E01F0910F018081892BE2
:103B100080830E94521D81111092CB0180910E0171
:103B200090910F010C945C1240E0009739F09C01D9
:103B300021503109822393234F5FF7CF842F0895BB
:103B4000CF92DF92EF92FF920F931F936C01EE24BE
:103B5000FF24C114D104E104F10421F46B017C01C0
:103B600080E001C080E133272F2D1E2D0D2D011582
:103B700011052105310519F0885F68017901970168
:103B80008601A4E03695279517950795AA95D1F754
:103B9000011511052105310519F08C5F68017901C6
:103BA00097018601F2E03695279517950795FA95C6
:103BB000D1F7011511052105310519F08E5F680156
:103BC0007901B701A6017695679557954795452BDD
:103BD000462B472B09F08F5F1F910F91FF90EF90BD
:103BE000DF90CF9008958091F801843021F11092F8
:103BF000E00120E488E190E00FB6F894A895809366
:103C000060000FBE2093600080E00E94590B83B7D4
:103C1000817F846083BF83B7816083BF78948895F8
:103C200083B78E7F83BF88E10FB6F89480936000DE
:103C3000109260000FBE089508950E9436050E94FC
:103C400049050E941C1E0E943D0691E0811101C0A1
:103C500090E0892F08950E94F0160E9450120C9453
:103C6000590B82E084BD93E095BD9AEF97BD809398
:103C70006E0008952FB7F8948091E1019091E201D0
:103C8000A091E301B091E4012FBF0895CF92DF929C
:103C9000EF92FF920F931F932FB7F8944091E10199
:103CA0005091E2016091E3017091E4012FBF6A013C
:103CB0007B01EE24FF248C0120E030E0C016D10609
:103CC000E206F30610F441505109481B590BCA0192
:103CD0001F910F91FF90EF90DF90CF9008951F926A
:103CE0000F920FB60F9211248F939F93AF93BF93B0
:103CF0008091E1019091E201A091E301B091E40192
:103D00000196A11DB11D8093E1019093E201A09362
:103D1000E301B093E401BF91AF919F918F910F9018
:103D20000FBE0F901F9018950E94560FF8942FEF1A
:103D300087EA91E6215080409040E1F700C0000002
:103D400087E090EBDC018093010290930202A09344
:103D50000302B09304022CE088E190E00FB6F894DF
:103D6000A895809360000FBE20936000FFCF0E9453
:103D7000EF1E811102C00E94D51E0E94FA1E809380
:103D8000DF010E94021F90E09093F3018093F20103
:103D900087FB882780F980930D010E94FE1E682F03
:103DA00070E080E090E00C94EE1A6DEE7EEF80E023
:103DB00090E00E942A2560E082E090E00E941825B1
:103DC00060E083E090E00E94182560E084E090E0ED
:103DD0000E94182560E085E090E00C94182580E0B2
:103DE00090E00E94122521E08D3E9E4F09F020E0D8
:103DF000822F089582E090E00C940A2583E090E001
:103E00000C940A2584E090E00C940A25682F84E045
:103E100090E00C9418258091E70180FF0BC0609121
:103E2000130185E0689FB00111247595679575951C
:103E300067952AC081FF09C06091130185E0689FE2
:103E4000B0011124759567951FC082FF07C060916E
:103E5000130185E0689FB001112416C04091E8016C
:103E60004423C9F060911201461788F7209113018D
:103E700085E0289F90011124429FC001439F900D2F
:103E8000112470E00E94DC246038710540F4611553
:103E9000710539F002C065E070E0862F08958FE764
:103EA000089581E008958091E70180FF08C0609146
:103EB000110170E0759567957595679521C081FF33
:103EC00006C06091110170E07595679519C082FF79
:103ED00004C06091110170E010C08091E801882356
:103EE000C1F0609110018617A0F790911101989F81
:103EF000C001112470E00E94DC246038710528F4B0
:103F00006115710521F0862F08958FE7089581E0EE
:103F1000089561E070E0F4CF803F21F40E940B1F10
:103F2000819504C0813F29F40E940B1F8093EB010F
:103F30000895823F21F40E940B1F819504C0833FA6
:103F400029F40E940B1F8093EA010895893F19F418
:103F50000E94531F05C08A3F31F40E94531F819570
:103F60008093EC0108958B3F21F40E94531F8195AB
:103F700004C08C3F29F40E94531F8093ED010895E3
:103F8000843F21F48091E901816017C0853F21F4CD
:103F90008091E901826011C0863F21F48091E9019E
:103FA00084600BC0873F21F48091E901886005C0DF
:103FB000883F31F48091E90180618093E90108959F
:103FC0008D3F21F48091E70181600BC08E3F21F489
:103FD0008091E701826005C08F3F29F48091E7015D
:103FE00084608093E7010895803F39F48091EB016C
:103FF00087FF6CC01092EB0169C0813F29F480916A
:10400000EB011816BCF362C09091EA01823F29F4DB
:1040100097FF5CC01092EA0159C0833F19F419164A
:10402000CCF354C0893F41F48091EC0118160CF098
:104030004DC01092EC014AC08A3F29F48091EC01F6
:1040400087FF44C0F6CF8B3F39F48091ED0187FFA5
:104050003DC01092ED013AC08C3F29F48091ED01F2
:104060001816BCF333C0843F21F48091E9018E7FA0
:1040700017C0853F21F48091E9018D7F11C0863FF3
:1040800021F48091E9018B7F0BC0873F21F480915F
:10409000E901877F05C0883F31F48091E9018F7E77
:1040A0008093E90113C08D3F21F48091E7018E7F59
:1040B0000BC08E3F21F48091E7018D7F05C08F3FBB
:1040C00029F48091E7018B7F8093E7018091EA01D9
:1040D00081110EC08091EB0181110AC08091EC0129
:1040E000811106C08091ED01811102C01092E8019A
:1040F000089589EE91E00E9467120E943A1E909303
:10410000E6018093E50108951F93CF93DF9380919B
:10411000E5019091E6010E94461E4091E80144238A
:1041200021F02091140130E006C0209115015AE0E1
:10413000259F900111248217930708F482C0809173
:10414000EA011091EB01D091EC01C091ED018111D8
:1041500007C0111105C0D11103C0CC2309F471C0EF
:104160004F3F19F04F5F4093E801181624F40E9466
:104170000B1F8093EA018091EA0187FF05C00E942E
:104180000B1F81958093EA01111624F40E940B1FE6
:104190008093EB018091EB0187FF05C00E940B1F0C
:1041A00081958093EB016091EA01662339F11091CA
:1041B000EB01112319F1772767FD7095872F972F52
:1041C0000E94ED2323E333E343E35FE30E945124A2
:1041D0000E94BA236093EA01612F772767FD7095EB
:1041E000872F972F0E94ED2323E333E343E35FE31D
:1041F0000E9451240E94BA236093EB011D1624F4FF
:104200000E94531F8093EC018091EC0187FF05C051
:104210000E94531F81958093EC011C1624F40E9488
:10422000531F8093ED018091ED0187FF05C00E942F
:10423000531F81958093ED01DF91CF911F910C94D5
:104240007920DF91CF911F910895E9EEF1E085E0AB
:10425000DF011D928A95E9F71092E8011092E701BB
:104260000895833081F128F4813059F08230D1F003
:104270000895853009F449C0B8F1863009F456C074
:10428000089520911501862F90E0820F911D8F3F98
:10429000910520F4620F6093150108958FEF8093CC
:1042A0001501089520911401862F90E0820F911D31
:1042B0008F3F910520F4620F6093140108958FEFF2
:1042C00080931401089520911301862F90E0820FAE
:1042D000911D8F3F910520F4620F609313010895A3
:1042E0008FEF80931301089520911201862F90E0A3
:1042F000820F911D8F3F910520F4620F6093120190
:1043000008958FEF80931201089520911101862F57
:1043100090E0820F911D8F3F910520F4620F609312
:10432000110108958FEF80931101089520911001DC
:10433000862F90E0820F911D8F3F910520F4620F30
:104340006093100108958FEF8093100108958330DA
:1043500011F128F4813049F0823091F008958530D0
:1043600081F120F18630C1F108958091150168171F
:1043700020F4861B8093150108951092150108956D
:1043800080911401681720F4861B8093140108950E
:1043900010921401089580911301681720F4861B70
:1043A00080931301089510921301089580911201D2
:1043B000681720F4861B8093120108951092120151
:1043C000089580911101681720F4861B80931101D4
:1043D000089510921101089580911001681720F43A
:1043E000861B8093100108951092100108958D315D
:1043F00009F43FC008F5803109F485C070F48730B6
:1044000009F456C018F48630D9F131C08B3009F464
:10441000A5C08E3009F466C02AC0863109F49EC05A
:1044200020F4813109F479C022C0893109F496C0A1
:104430008B3109F44DC01BC0853309F487C048F4A3
:10444000873209F483C008F473C0893209F47EC04E
:104450000EC0833438F48A3308F068C0883309F416
:104460007DC005C0833409F471C0883499F080E0C0
:1044700008950E9474230E9450120E94590B6EC02E
:104480008091DF01817F8E7F8093DF0181E08093C7
:10449000EF0108950E94F0162FEF83ED90E3215075
:1044A00080409040E1F700C000000E94941E56C07A
:1044B0009091DF01892F8095817080FB90F919F030
:1044C000966098601DC0997F977F9093DF0146C0EA
:1044D0009091DF0191FB882780F921E0822780FB02
:1044E00091F909C09091DF0192FB882780F921E0C2
:1044F000822780FB92F99093DF01882379F1916004
:104500009093DF0108959091DF0193FB882780F954
:1045100021E0822780FB93F9EECF0E94F016809174
:104520000D0191E0892780930D0118C027EC01C08F
:1045300023EE280F61E070E080E090E004C0660F99
:10454000771F881F991F2A95D2F704C061E070E099
:1045500080E090E00E94EE1A0E94F01681E008953B
:1045600080E0089580E008958E518A3030F4E82F7D
:10457000F0E0E65DFE4F8081089580E00895CF93DE
:10458000C82F8091EF01813079F018F08230D1F19D
:1045900083C0E0910E01F0910F018081813169F0BB
:1045A000823209F07BC009C0E0910E01F0910F0149
:1045B0008081813111F0823249F48C2F0E94B02227
:1045C00081111DC08C2F0E94F7211AC08C2F0E94D0
:1045D000B222811114C0C43179F048F4CB3079F0A3
:1045E000C03109F05FC082E08093EF0108C0C9329A
:1045F00019F0C83321F056C01092EF0153C081E08A
:10460000817052C0C93281F110F5C43169F1A8F44A
:10461000C73009F045C08AE08093150194E190937A
:10462000140193E0909313018093120188E080932A
:10463000110188E28093100133C082EE8C0F863026
:1046400078F58C2F0E94B4228093EE0129C0CE34DD
:10465000E9F020F4CB3421F56AE013C0C13579F0DC
:10466000C235F1F461E00DC08091EE01882319F0AC
:104670001092EE0115C081E08093EF0115C061E05A
:1046800006C08091EE010E9431210AC06AE080914B
:10469000EE010E94A72104C01092EF0180E004C047
:1046A00081E002C080E0ACCFCF910895E1E8F0E076
:1046B0008081886080838081816080838FB7F89457
:1046C00093E09093890090ED909388008FBF0895B8
:1046D000EFE6F0E08081826080830895EFE6F0E00D
:1046E00080818D7F80830895EFE6F0E0808192E005
:1046F0008927808308951F920F920FB60F9211247D
:104700002F933F934F935F936F937F938F939F93D9
:10471000AF93BF93EF93FF938091F0019091F101DC
:1047200001969093F1018093F001811103C082E022
:104730000E94590BE091F101E695E695F0E0EC5707
:10474000F74FE4918091F0018E1303C080E00E9446
:10475000590BFF91EF91BF91AF919F918F917F91F5
:104760006F915F914F913F912F910F900FBE0F90DE
:104770001F90189504D06894B1118DC0089570D021
:1047800088F09F5790F0B92F9927B751A0F0D1F03A
:10479000660F771F881F991F1AF0BA95C9F712C0C4
:1047A000B13081F077D0B1E0089574C0672F782FD1
:1047B0008827B85F39F0B93FCCF386957795679530
:1047C000B395D9F73EF490958095709561957F4F9C
:1047D0008F4F9F4F0895E89409C097FB3EF4909542
:1047E0008095709561957F4F8F4F9F4F9923A9F0CA
:1047F000F92F96E9BB279395F69587957795679559
:10480000B795F111F8CFFAF4BB0F11F460FF1BC09C
:104810006F5F7F4F8F4F9F4F16C0882311F096E92F
:1048200011C0772321F09EE8872F762F05C06623DD
:1048300071F096E8862F70E060E02AF09A95660F96
:10484000771F881FDAF7880F9695879597F908954F
:1048500057FD9058440F551F59F05F3F71F0479531
:10486000880F97FB991F61F09F3F79F08795089516
:10487000121613061406551FF2CF4695F1DF08C035
:10488000161617061806991FF1CF86957105610552
:1048900008940895E894BB2766277727CB0197F9FA
:1048A00008950BD078C069D028F06ED018F0952309
:1048B00009F05AC05FC01124EECFCADFA0F3959F64
:1048C000D1F3950F50E0551F629FF001729FBB27F7
:1048D000F00DB11D639FAA27F00DB11DAA1F649FA3
:1048E0006627B00DA11D661F829F2227B00DA11D56
:1048F000621F739FB00DA11D621F839FA00D611DDC
:10490000221F749F3327A00D611D231F849F600DFC
:10491000211D822F762F6A2F11249F5750408AF035
:10492000E1F088234AF0EE0FFF1FBB1F661F771FC1
:10493000881F91505040A9F79E3F510570F014C058
:10494000AACF5F3FECF3983EDCF3869577956795A9
:10495000B795F795E7959F5FC1F7FE2B880F911DDF
:104960009695879597F9089597F99F6780E870E085
:1049700060E008959FEF80EC089500240A941616D5
:10498000170618060906089500240A94121613063D
:10499000140605060895092E0394000C11F48823CB
:1049A00052F0BB0F40F4BF2B11F460FF04C06F5FE7
:1049B0007F4F8F4F9F4F089597FB072E16F400945B
:1049C00007D077FD09D00E94F62407FC05D03EF4FD
:1049D000909581959F4F0895709561957F4F0895AB
:1049E000EE0FFF1F0590F491E02D0994AA1BBB1B4D
:1049F00051E107C0AA1FBB1FA617B70710F0A61BDF
:104A0000B70B881F991F5A95A9F780959095BC01FF
:104A1000CD010895F999FECF92BD81BDF89A9927ED
:104A200080B50895A8E1B0E042E050E00C94322552
:104A3000262FF999FECF92BD81BDF89A019700B457
:104A4000021639F01FBA20BD0FB6F894FA9AF99AF7
:104A50000FBE08950196272F0E9419250C94182542
:104A6000DC01CB01FC01F999FECF06C0F2BDE1BD2E
:104A7000F89A319600B40D9241505040B8F708951D
:044A8000F894FFCFD8
:104A840002205B0BE80BC50B910B5E0B0101CC0103
:104A940028080A03140A404D36394408F707C107A9
:104AA40088071B0734074D07660701020304050640
:044AB40007080900E6
:00000001FF
